{
  "contractName": "PixTAccessControl",
  "abi": [
    {
      "constant": true,
      "inputs": [],
      "name": "contractOwner",
      "outputs": [
        {
          "internalType": "address",
          "name": "",
          "type": "address"
        }
      ],
      "payable": false,
      "stateMutability": "view",
      "type": "function"
    },
    {
      "constant": true,
      "inputs": [],
      "name": "role1",
      "outputs": [
        {
          "internalType": "address",
          "name": "",
          "type": "address"
        }
      ],
      "payable": false,
      "stateMutability": "view",
      "type": "function"
    },
    {
      "constant": true,
      "inputs": [],
      "name": "role2",
      "outputs": [
        {
          "internalType": "address",
          "name": "",
          "type": "address"
        }
      ],
      "payable": false,
      "stateMutability": "view",
      "type": "function"
    },
    {
      "constant": true,
      "inputs": [],
      "name": "role3",
      "outputs": [
        {
          "internalType": "address",
          "name": "",
          "type": "address"
        }
      ],
      "payable": false,
      "stateMutability": "view",
      "type": "function"
    },
    {
      "constant": false,
      "inputs": [
        {
          "internalType": "address",
          "name": "_newOwner",
          "type": "address"
        }
      ],
      "name": "setOwner",
      "outputs": [],
      "payable": false,
      "stateMutability": "nonpayable",
      "type": "function"
    },
    {
      "constant": false,
      "inputs": [
        {
          "internalType": "address",
          "name": "_role1",
          "type": "address"
        },
        {
          "internalType": "address",
          "name": "_role2",
          "type": "address"
        },
        {
          "internalType": "address",
          "name": "_role3",
          "type": "address"
        }
      ],
      "name": "setRolesAddress",
      "outputs": [],
      "payable": false,
      "stateMutability": "nonpayable",
      "type": "function"
    }
  ],
  "bytecode": "0x608060405234801561001057600080fd5b50610216806100206000396000f3fe608060405234801561001057600080fd5b50600436106100625760003560e01c806302a280911461006757806313af40351461008b578063514f2e04146100b357806389841dfd146100bb578063ce606ee0146100f3578063ed0908df146100fb575b600080fd5b61006f610103565b604080516001600160a01b039092168252519081900360200190f35b6100b1600480360360208110156100a157600080fd5b50356001600160a01b0316610112565b005b61006f61015e565b6100b1600480360360608110156100d157600080fd5b506001600160a01b03813581169160208101358216916040909101351661016d565b61006f6101c3565b61006f6101d2565b6002546001600160a01b031681565b6003546001600160a01b0316331461012957600080fd5b6001600160a01b03811661013c57600080fd5b600380546001600160a01b0319166001600160a01b0392909216919091179055565b6000546001600160a01b031681565b6003546001600160a01b0316331461018457600080fd5b600080546001600160a01b039485166001600160a01b031991821617909155600180549385169382169390931790925560028054919093169116179055565b6003546001600160a01b031681565b6001546001600160a01b03168156fea265627a7a723158201ca8fb790886f6d24c8f6c0cdb5a424dde255df382cc09f801a38b516688139b64736f6c634300050c0032",
  "source": "pragma solidity ^0.5.0;\n\ncontract PixTAccessControl {\n    // The addresses of the accounts (or contracts) that can execute actions within each roles.\n    address public role1; // role has to be defined\n    address public role2; // role has to be defined\n    address public role3; // role has to be defined\n    address public contractOwner;\n    \n    // @dev Access modifier for Owner-only functionality\n    modifier onlyOwner() {\n        require(msg.sender == contractOwner);\n        _;\n    }\n    \n    // @dev Assigns a new address to act as the Owner. Only available to the current Owner.\n    // @param _newOwner The address of the new Owner\n    function setOwner(address _newOwner) external onlyOwner {\n        require(_newOwner != address(0));\n\n        contractOwner = _newOwner;\n    }\n    \n    // @dev Access modifier for restricted functionality\n    modifier onlyRLevel() {\n        require(\n            msg.sender == role1 ||\n            msg.sender == role2 ||\n            msg.sender == role3 ||\n            msg.sender == contractOwner\n        );\n        _;\n    }\n    \n    // @dev Set adresses of each role\n    function setRolesAddress(address _role1, address _role2, address _role3) public onlyOwner {\n        role1 = _role1;\n        role2 = _role2;\n        role3 = _role3;\n    }\n}",
  "sourcePath": "/home/bobby/PixT/contracts/PixTAccessControl.sol",
  "compiler": {
    "name": "solc",
    "version": "0.5.12+commit.7709ece9.Emscripten.clang"
  },
  "schemaVersion": "3.0.19",
  "updatedAt": "2020-01-30T17:24:07.581Z",
  "devdoc": {
    "methods": {}
  },
  "userdoc": {
    "methods": {}
  }
}