{
  "contractName": "PixT",
  "abi": [
    {
      "inputs": [],
      "payable": false,
      "stateMutability": "nonpayable",
      "type": "constructor"
    },
    {
      "anonymous": false,
      "inputs": [
        {
          "indexed": false,
          "internalType": "address",
          "name": "from",
          "type": "address"
        },
        {
          "indexed": false,
          "internalType": "address",
          "name": "to",
          "type": "address"
        },
        {
          "indexed": false,
          "internalType": "uint256",
          "name": "tokenId",
          "type": "uint256"
        }
      ],
      "name": "Transfer",
      "type": "event"
    },
    {
      "constant": true,
      "inputs": [],
      "name": "contractOwner",
      "outputs": [
        {
          "internalType": "address",
          "name": "",
          "type": "address"
        }
      ],
      "payable": false,
      "stateMutability": "view",
      "type": "function"
    },
    {
      "constant": true,
      "inputs": [],
      "name": "role1",
      "outputs": [
        {
          "internalType": "address",
          "name": "",
          "type": "address"
        }
      ],
      "payable": false,
      "stateMutability": "view",
      "type": "function"
    },
    {
      "constant": true,
      "inputs": [],
      "name": "role2",
      "outputs": [
        {
          "internalType": "address",
          "name": "",
          "type": "address"
        }
      ],
      "payable": false,
      "stateMutability": "view",
      "type": "function"
    },
    {
      "constant": true,
      "inputs": [],
      "name": "role3",
      "outputs": [
        {
          "internalType": "address",
          "name": "",
          "type": "address"
        }
      ],
      "payable": false,
      "stateMutability": "view",
      "type": "function"
    },
    {
      "constant": false,
      "inputs": [
        {
          "internalType": "address",
          "name": "_newOwner",
          "type": "address"
        }
      ],
      "name": "setOwner",
      "outputs": [],
      "payable": false,
      "stateMutability": "nonpayable",
      "type": "function"
    },
    {
      "constant": false,
      "inputs": [
        {
          "internalType": "address",
          "name": "_role1",
          "type": "address"
        },
        {
          "internalType": "address",
          "name": "_role2",
          "type": "address"
        },
        {
          "internalType": "address",
          "name": "_role3",
          "type": "address"
        }
      ],
      "name": "setRolesAddress",
      "outputs": [],
      "payable": false,
      "stateMutability": "nonpayable",
      "type": "function"
    },
    {
      "constant": false,
      "inputs": [
        {
          "internalType": "uint256",
          "name": "_tokenID",
          "type": "uint256"
        },
        {
          "internalType": "uint256",
          "name": "amount",
          "type": "uint256"
        },
        {
          "internalType": "uint8",
          "name": "shipping",
          "type": "uint8"
        },
        {
          "internalType": "uint256",
          "name": "format",
          "type": "uint256"
        }
      ],
      "name": "buyPics",
      "outputs": [],
      "payable": true,
      "stateMutability": "payable",
      "type": "function"
    },
    {
      "constant": false,
      "inputs": [
        {
          "internalType": "string",
          "name": "_datas",
          "type": "string"
        },
        {
          "internalType": "bool",
          "name": "_permission",
          "type": "bool"
        }
      ],
      "name": "createNewPicture",
      "outputs": [],
      "payable": false,
      "stateMutability": "nonpayable",
      "type": "function"
    },
    {
      "constant": false,
      "inputs": [
        {
          "internalType": "uint256",
          "name": "_tokenID",
          "type": "uint256"
        },
        {
          "internalType": "bool",
          "name": "value",
          "type": "bool"
        }
      ],
      "name": "setPrintable",
      "outputs": [],
      "payable": false,
      "stateMutability": "nonpayable",
      "type": "function"
    },
    {
      "constant": false,
      "inputs": [
        {
          "internalType": "uint256",
          "name": "_tokenID",
          "type": "uint256"
        },
        {
          "internalType": "bool",
          "name": "value",
          "type": "bool"
        }
      ],
      "name": "setPermission",
      "outputs": [],
      "payable": false,
      "stateMutability": "nonpayable",
      "type": "function"
    },
    {
      "constant": false,
      "inputs": [
        {
          "internalType": "uint256",
          "name": "_tokenID",
          "type": "uint256"
        },
        {
          "internalType": "uint8",
          "name": "_level",
          "type": "uint8"
        }
      ],
      "name": "setAccessLevel",
      "outputs": [],
      "payable": false,
      "stateMutability": "nonpayable",
      "type": "function"
    },
    {
      "constant": true,
      "inputs": [
        {
          "internalType": "address",
          "name": "_addr",
          "type": "address"
        }
      ],
      "name": "getPhotoOwnerInfos",
      "outputs": [
        {
          "internalType": "uint8",
          "name": "accessLevel",
          "type": "uint8"
        },
        {
          "internalType": "uint256",
          "name": "sales",
          "type": "uint256"
        },
        {
          "internalType": "uint256",
          "name": "revenues",
          "type": "uint256"
        }
      ],
      "payable": false,
      "stateMutability": "view",
      "type": "function"
    },
    {
      "constant": true,
      "inputs": [
        {
          "internalType": "address",
          "name": "_address",
          "type": "address"
        }
      ],
      "name": "getListToken",
      "outputs": [
        {
          "internalType": "uint256[]",
          "name": "",
          "type": "uint256[]"
        }
      ],
      "payable": false,
      "stateMutability": "view",
      "type": "function"
    },
    {
      "constant": true,
      "inputs": [],
      "name": "getTokenID",
      "outputs": [
        {
          "internalType": "uint256",
          "name": "",
          "type": "uint256"
        }
      ],
      "payable": false,
      "stateMutability": "view",
      "type": "function"
    },
    {
      "constant": true,
      "inputs": [
        {
          "internalType": "uint256",
          "name": "_tokenID",
          "type": "uint256"
        }
      ],
      "name": "getPicInfos",
      "outputs": [
        {
          "internalType": "string",
          "name": "datas",
          "type": "string"
        },
        {
          "internalType": "bool",
          "name": "copyright",
          "type": "bool"
        },
        {
          "internalType": "bool",
          "name": "printable",
          "type": "bool"
        }
      ],
      "payable": false,
      "stateMutability": "view",
      "type": "function"
    },
    {
      "constant": true,
      "inputs": [],
      "name": "balanceOfSC",
      "outputs": [
        {
          "internalType": "uint256",
          "name": "balance",
          "type": "uint256"
        }
      ],
      "payable": false,
      "stateMutability": "view",
      "type": "function"
    },
    {
      "constant": true,
      "inputs": [
        {
          "internalType": "address",
          "name": "owner",
          "type": "address"
        }
      ],
      "name": "balanceOf",
      "outputs": [
        {
          "internalType": "uint256",
          "name": "",
          "type": "uint256"
        }
      ],
      "payable": false,
      "stateMutability": "view",
      "type": "function"
    },
    {
      "constant": true,
      "inputs": [
        {
          "internalType": "uint256",
          "name": "tokenId",
          "type": "uint256"
        }
      ],
      "name": "ownerOf",
      "outputs": [
        {
          "internalType": "address",
          "name": "",
          "type": "address"
        }
      ],
      "payable": false,
      "stateMutability": "view",
      "type": "function"
    },
    {
      "constant": false,
      "inputs": [
        {
          "internalType": "address",
          "name": "from",
          "type": "address"
        },
        {
          "internalType": "address",
          "name": "to",
          "type": "address"
        },
        {
          "internalType": "uint256",
          "name": "tokenId",
          "type": "uint256"
        }
      ],
      "name": "transferFrom",
      "outputs": [],
      "payable": false,
      "stateMutability": "nonpayable",
      "type": "function"
    }
  ],
  "bytecode": "0x608060405234801561001057600080fd5b50600380546001600160a01b031916331790556114bf806100326000396000f3fe6080604052600436106101145760003560e01c806370a08231116100a0578063b525845411610064578063b525845414610436578063ce606ee01461048b578063ed0908df146104a0578063f009a400146104b5578063fab58ed41461056a57610114565b806370a08231146102a25780637769ea0b146102d55780637fe8274e1461030757806389841dfd146103bf578063a73fcacb1461040457610114565b806325605c6a116100e757806325605c6a146101f457806339207dd01461021b578063514f2e041461024e5780636352211e146102635780636ba367a31461028d57610114565b806302a28091146101195780630b53c9161461014a57806313af40351461017e57806323b872dd146101b1575b600080fd5b34801561012557600080fd5b5061012e6105ed565b604080516001600160a01b039092168252519081900360200190f35b34801561015657600080fd5b5061017c6004803603604081101561016d57600080fd5b508035906020013515156105fc565b005b34801561018a57600080fd5b5061017c600480360360208110156101a157600080fd5b50356001600160a01b03166106c8565b3480156101bd57600080fd5b5061017c600480360360608110156101d457600080fd5b506001600160a01b03813581169160208101359091169060400135610714565b34801561020057600080fd5b50610209610773565b60408051918252519081900360200190f35b34801561022757600080fd5b5061017c6004803603604081101561023e57600080fd5b508035906020013560ff16610794565b34801561025a57600080fd5b5061012e6108c4565b34801561026f57600080fd5b5061012e6004803603602081101561028657600080fd5b50356108d3565b34801561029957600080fd5b5061020961092d565b3480156102ae57600080fd5b50610209600480360360208110156102c557600080fd5b50356001600160a01b0316610933565b3480156102e157600080fd5b5061017c600480360360408110156102f857600080fd5b50803590602001351515610996565b34801561031357600080fd5b506103316004803603602081101561032a57600080fd5b5035610a58565b60405180806020018415151515815260200183151515158152602001828103825285818151815260200191508051906020019080838360005b8381101561038257818101518382015260200161036a565b50505050905090810190601f1680156103af5780820380516001836020036101000a031916815260200191505b5094505050505060405180910390f35b3480156103cb57600080fd5b5061017c600480360360608110156103e257600080fd5b506001600160a01b038135811691602081013582169160409091013516610b63565b61017c6004803603608081101561041a57600080fd5b5080359060208101359060ff6040820135169060600135610bb9565b34801561044257600080fd5b506104696004803603602081101561045957600080fd5b50356001600160a01b0316610d60565b6040805160ff9094168452602084019290925282820152519081900360600190f35b34801561049757600080fd5b5061012e610d8c565b3480156104ac57600080fd5b5061012e610d9b565b3480156104c157600080fd5b5061017c600480360360408110156104d857600080fd5b8101906020810181356401000000008111156104f357600080fd5b82018360208201111561050557600080fd5b8035906020019184600183028401116401000000008311171561052757600080fd5b91908080601f0160208091040260200160405190810160405280939291908181526020018383808284376000920191909152509295505050503515159050610daa565b34801561057657600080fd5b5061059d6004803603602081101561058d57600080fd5b50356001600160a01b0316610f27565b60408051602080825283518183015283519192839290830191858101910280838360005b838110156105d95781810151838201526020016105c1565b505050509050019250505060405180910390f35b6002546001600160a01b031681565b33610606836108d3565b6001600160a01b031614610656576040805162461bcd60e51b81526020600482015260126024820152712737ba103a37b5b2b713b99037bbb732b91760711b604482015290519081900360640190fd5b61065f8261103e565b61069e576040805162461bcd60e51b815260206004820152601a602482015260008051602061146b833981519152604482015290519081900360640190fd5b60009182526008602052604090912060010180549115156101000261ff0019909216919091179055565b6003546001600160a01b031633146106df57600080fd5b6001600160a01b0381166106f257600080fd5b600380546001600160a01b0319166001600160a01b0392909216919091179055565b3361071e826108d3565b6001600160a01b0316146107635760405162461bcd60e51b81526004018080602001828103825260248152602001806114476024913960400191505060405180910390fd5b61076e83838361105b565b505050565b6003546000906001600160a01b0316331461078d57600080fd5b5030315b90565b6000546001600160a01b03163314806107b757506001546001600160a01b031633145b806107cc57506002546001600160a01b031633145b806107e157506003546001600160a01b031633145b6107ea57600080fd5b6107f38261103e565b610832576040805162461bcd60e51b815260206004820152601a602482015260008051602061146b833981519152604482015290519081900360640190fd5b60ff8160ff16111561088b576040805162461bcd60e51b815260206004820152601960248201527f4c6576656c2076616c7565206f7574206f662072616e67652e00000000000000604482015290519081900360640190fd5b6000610896836108d3565b6001600160a01b03166000908152600960205260409020805460ff191660ff93909316929092179091555050565b6000546001600160a01b031681565b6000818152600660205260408120546001600160a01b0316806109275760405162461bcd60e51b81526004018080602001828103825260298152602001806113cd6029913960400191505060405180910390fd5b92915050565b60055490565b60006001600160a01b03821661097a5760405162461bcd60e51b815260040180806020018281038252602a8152602001806113a3602a913960400191505060405180910390fd5b506001600160a01b031660009081526007602052604090205490565b336109a0836108d3565b6001600160a01b0316146109f0576040805162461bcd60e51b81526020600482015260126024820152712737ba103a37b5b2b713b99037bbb732b91760711b604482015290519081900360640190fd5b6109f98261103e565b610a38576040805162461bcd60e51b815260206004820152601a602482015260008051602061146b833981519152604482015290519081900360640190fd5b600091825260046020526040909120805460ff1916911515919091179055565b6060600080610a668461103e565b610aa5576040805162461bcd60e51b815260206004820152601a602482015260008051602061146b833981519152604482015290519081900360640190fd5b6000848152600860209081526040918290206001808201548254855160026101009483161585026000190190921691909104601f8101869004860282018601909652858152929460ff80831695939092049091169291859190830182828015610b4f5780601f10610b2457610100808354040283529160200191610b4f565b820191906000526020600020905b815481529060010190602001808311610b3257829003601f168201915b505050505092509250925092509193909250565b6003546001600160a01b03163314610b7a57600080fd5b600080546001600160a01b039485166001600160a01b031991821617909155600180549385169382169390931790925560028054919093169116179055565b82341015610c0e576040805162461bcd60e51b815260206004820152601f60248201527f54686520616d6f756e7420796f75207061696420697320746f6f206c6f772e00604482015290519081900360640190fd5b610c178461103e565b610c56576040805162461bcd60e51b815260206004820152601a602482015260008051602061146b833981519152604482015290519081900360640190fd5b60008481526008602052604090206001015460ff1615610ca75760405162461bcd60e51b815260040180806020018281038252602a815260200180611355602a913960400191505060405180910390fd5b6000848152600860205260409020600190810154610100900460ff16151514610d015760405162461bcd60e51b815260040180806020018281038252602881526020018061141f6028913960400191505060405180910390fd5b336000908152600a60205260408120805460ff191660ff8516178155600101829055610d2c856108d3565b6001600160a01b03166000908152600960205260409020600180820180549091019055600201805490940190935550505050565b6001600160a01b031660009081526009602052604090208054600182015460029092015460ff90911692565b6003546001600160a01b031681565b6001546001600160a01b031681565b6000546001600160a01b0316331480610dcd57506001546001600160a01b031633145b80610de257506002546001600160a01b031633145b80610df757506003546001600160a01b031633145b610e0057600080fd5b610e0b60055461103e565b15610e5d576040805162461bcd60e51b815260206004820152601a60248201527f5468697320746f6b656e20616c7265616479206578697374732e000000000000604482015290519081900360640190fd5b60408051606081018252838152600060208083018290526001838501526005548252600881529290208151805192939192610e9b92849201906112bc565b5060208201516001909101805460409093015115156101000261ff001992151560ff199094169390931791909116919091179055600554610edd903390611186565b336000908152600b602090815260408083206005805482546001808201855593875285872001558054855260049093529220805460ff191693151593909317909255815401905550565b6001600160a01b0381166000908152600b6020526040902054606090610f86576040805162461bcd60e51b815260206004820152600f60248201526e2737903a37b5b2b71037bbb732b21760891b604482015290519081900360640190fd5b6001600160a01b038216610fd4576040805162461bcd60e51b815260206004820152601060248201526f24b73b30b634b21030b2323932b9b99760811b604482015290519081900360640190fd5b6001600160a01b0382166000908152600b60209081526040918290208054835181840281018401909452808452909183018282801561103257602002820191906000526020600020905b81548152602001906001019080831161101e575b50505050509050919050565b6000908152600660205260409020546001600160a01b0316151590565b826001600160a01b031661106e826108d3565b6001600160a01b0316146110b35760405162461bcd60e51b81526004018080602001828103825260298152602001806113f66029913960400191505060405180910390fd5b6001600160a01b0382166110f85760405162461bcd60e51b815260040180806020018281038252602481526020018061137f6024913960400191505060405180910390fd5b6001600160a01b038084166000818152600760209081526040808320805460001901905593861680835284832080546001019055858352600682529184902080546001600160a01b03191683179055835192835282015280820183905290517fddf252ad1be2c89b69c2b068fc378daa952ba7f163c4a11628f55a4df523b3ef9181900360600190a1505050565b6001600160a01b0382166111e1576040805162461bcd60e51b815260206004820181905260248201527f4552433732313a206d696e7420746f20746865207a65726f2061646472657373604482015290519081900360640190fd5b6111ea8161103e565b1561123c576040805162461bcd60e51b815260206004820152601c60248201527f4552433732313a20746f6b656e20616c7265616479206d696e74656400000000604482015290519081900360640190fd5b600081815260066020908152604080832080546001600160a01b0387166001600160a01b031990911681179091558084526007835281842080546001019055815193845291830191909152818101839052517fddf252ad1be2c89b69c2b068fc378daa952ba7f163c4a11628f55a4df523b3ef9181900360600190a15050565b828054600181600116156101000203166002900490600052602060002090601f016020900481019282601f106112fd57805160ff191683800117855561132a565b8280016001018555821561132a579182015b8281111561132a57825182559160200191906001019061130f565b5061133692915061133a565b5090565b61079191905b80821115611336576000815560010161134056fe5468697320746f6b656e20697320756e64657220636f7079726967687420696e66726967656d656e742e4552433732313a207472616e7366657220746f20746865207a65726f20616464726573734552433732313a2062616c616e636520717565727920666f7220746865207a65726f20616464726573734552433732313a206f776e657220717565727920666f72206e6f6e6578697374656e7420746f6b656e4552433732313a207472616e73666572206f6620746f6b656e2074686174206973206e6f74206f776e5468697320746f6b656e206973206e6f7420616c6c6f77656420746f206265207072696e7465642e4552433732313a207472616e736665722063616c6c6572206973206e6f74206f776e65725468697320746f6b656e20646f65736e2774206578697374732e000000000000a265627a7a7231582048d1564a9aed43fea831bc3aec40f3a033aca1b3611bc5e210913b687d7dc5d064736f6c634300050c0032",
  "source": "pragma solidity ^0.5.0;\n\nimport \"./ERC721.sol\";\nimport \"./PixTAccessControl.sol\";\n\ncontract PixT is ERC721, PixTAccessControl {\n    \n    struct Picture {\n        string metadatas;          // Picture's metadatas in a single string separated by commas\n        bool copyrightInfrigement; // Is the picture under a copyright infrigement ? yes = TRUE, else FALSE\n        bool isAllowedToPrint;     // TRUE = the news reader can clicks the picture for print sale and is redirected to the print eCommerce site and order\n    }\n    \n    struct PhotoOwner {\n        uint8 accessLevel;          // Define access / limitation / embargo / between Photo owner / agencys system and Pix.T solution\n        uint256 sales;              // Track sales\n        uint256 revenues;           // Track revenues\n    }\n    \n    struct PhotoBuyer {\n        uint8 shippingOptions; // Shipping options\n        uint256 format;        // Photo format\n    }\n    \n    // mapping from token ID to authorize Pix.T (if TRUE) to manage its photos commercialization as prints, else FALSE\n    mapping (uint256 => bool) _givePermission; \n    \n    // Identifier for each picture\n    uint256 private tokenID;\n    \n    // Mapping from token ID to owner\n    mapping (uint256 => address) _tokenOwner;\n\n    // Mapping from owner to number of owned token\n    mapping (address => uint256) _ownedTokensCount;\n    \n    // Mapping from token ID to their corresponding Picture's datas\n    mapping (uint256 => Picture) _pics;\n    \n    // Mapping from address to their corresponding photo owner\n    mapping (address => PhotoOwner) _photosOwners;\n    \n    // Mapping from address to their corresponding photo buyer\n    mapping (address => PhotoBuyer) _photoBuyers;\n    \n    // Mapping from address to the list of owned tokens\n    mapping (address => uint256[]) _tokenToOwnerList;\n    \n    constructor () public {\n        contractOwner = msg.sender; // the creator of the contract is the initial owner\n    }\n    \n    /**\n     * @dev Buying a picture\n     * @param _tokenID uint256 ID of the token\n     * @param amount uint256 amount paid to buy the picture\n     * @param shipping uint8 shipping options value\n     * @param format uint256 format of the picture the photo buyer wants\n     */\n    function buyPics(uint256 _tokenID, uint256 amount, uint8 shipping, uint256 format) public payable {\n        require(msg.value >= amount, \"The amount you paid is too low.\");\n        require(_exists(_tokenID), \"This token doesn't exists.\");\n        require(_pics[_tokenID].copyrightInfrigement == false, \"This token is under copyright infrigement.\");\n        require(_pics[_tokenID].isAllowedToPrint == true, \"This token is not allowed to be printed.\");\n        \n        _photoBuyers[msg.sender].shippingOptions = shipping;\n        _photoBuyers[msg.sender].format = format;\n        \n        address owner = ownerOf(_tokenID);\n        _photosOwners[owner].sales++;\n        _photosOwners[owner].revenues += amount;\n    }\n    \n    /**\n     * @dev Create a new picture with all its metadatas. Only available to the current owner\n     * @param _datas string all metadatas of the picture in a single string\n     * @param _permission bool authorize Pix.T to manage its photos commercialization as prints\n     */\n    function createNewPicture(string memory _datas, bool _permission) onlyRLevel public {\n        require(!_exists(tokenID), \"This token already exists.\");\n        \n        _pics[tokenID] = Picture(_datas, false, true);\n        _mint(msg.sender, tokenID);\n        _tokenToOwnerList[msg.sender].push(tokenID);\n        _givePermission[tokenID] = _permission;\n        \n        tokenID++; // Increment tokenID for the next token\n    }\n    \n    /**\n     * @dev Set if the picture is printable or not\n     * @param _tokenID uint256 ID of the token\n     * @param value bool True if the picture is printable, else False\n     */\n    function setPrintable(uint256 _tokenID, bool value) public {\n        require(ownerOf(_tokenID) == msg.sender, \"Not token's owner.\");\n        require(_exists(_tokenID), \"This token doesn't exists.\");\n        _pics[_tokenID].isAllowedToPrint = value;\n    }\n    \n    /**\n     * @dev Set if PixT is allowed to manage its photos commercialization as prints\n     * @param _tokenID uint256 ID of the token\n     * @param value bool True if PixT is allowed to manage the picture as print, else False\n     */\n    function setPermission(uint256 _tokenID, bool value) public {\n        require(ownerOf(_tokenID) == msg.sender, \"Not token's owner.\");\n        require(_exists(_tokenID), \"This token doesn't exists.\");\n        _givePermission[_tokenID] = value;\n    }\n    \n    /**\n     * @dev Set the access level of a photo owner\n     * @param _tokenID uint256 ID of the token\n     * @param _level uint8 Access level of the photo's owner\n     */\n    function setAccessLevel(uint256 _tokenID, uint8 _level) public onlyRLevel {\n        require(_exists(_tokenID), \"This token doesn't exists.\");\n        require(_level >= 0 && _level <= 255, \"Level value out of range.\");\n        \n        address theOwner = ownerOf(_tokenID);\n        _photosOwners[theOwner].accessLevel = _level;\n    }\n    \n    /**\n     * @dev Get PhotoOwner's informations like the value of all revenues and number of sales\n     * @param _addr address Address from which we want to obtain informations\n     * @return uint256 sales Number of sales for this address\n     * @return uint256 revenues All revenues made from saling pictures\n     * return uint8 accessLevel Define access / limitation / embargo / between Photo owner / agencys system and Pix.T solution\n     */\n    function getPhotoOwnerInfos(address _addr) public view returns (uint8 accessLevel, uint256 sales, uint256 revenues) {\n        return (_photosOwners[_addr].accessLevel, _photosOwners[_addr].sales, _photosOwners[_addr].revenues);\n    }\n    \n    /**\n     * @dev Get the list of tokens owned by an address \n     * @param _address address Address we want to have the list of tokens\n     * @return uint256[] List of owned tokens\n     */\n    function getListToken(address _address) public view returns (uint256[] memory) {\n        require(_tokenToOwnerList[_address].length > 0, \"No token owned.\");\n        require(_address != address(0), \"Invalid address.\");\n        return _tokenToOwnerList[_address];\n    }\n    \n    /**\n     * @dev Get the current tokenID value\n     * @return uint256 Id of the current tokenID\n     */\n    function getTokenID() public view returns (uint256) {\n        return tokenID;\n    }\n    \n    /**\n     * @dev get all informations of a tokenID\n     * @param _tokenID uint256 ID of the token\n     * @return datas string representing all the metadatas of the Picture\n     * @return copyright bool is the picture under a copyright infrigement ? yes = TRUE, else FALSE\n     * @return printable bool TRUE = the news reader can clicks the picture for print sale and is redirected to the print eCommerce site and order\n     */\n    function getPicInfos(uint256 _tokenID) public view returns (string memory datas, bool copyright, bool printable ) {\n        require(_exists(_tokenID), \"This token doesn't exists.\");\n        \n        return (_pics[_tokenID].metadatas, _pics[_tokenID].copyrightInfrigement, _pics[_tokenID].isAllowedToPrint);\n    }\n    \n    /**\n     * @dev Gets the balance of the Smart contract. Only available to the current owner\n     * return uint256 representing the amount of ETH owned by the contract\n     */\n    function balanceOfSC() public view onlyOwner returns (uint256 balance) {\n        return address(this).balance;\n    }\n    \n    /**\n     * @dev Gets the balance of the specified address.\n     * @param owner address to query the balance of\n     * @return uint256 representing the amount owned by the passed address\n     */\n    function balanceOf(address owner) public view returns (uint256) {\n        require(owner != address(0), \"ERC721: balance query for the zero address\");\n\n        return _ownedTokensCount[owner];\n    }\n\n    /**\n     * @dev Gets the owner of the specified token ID.\n     * @param tokenId uint256 ID of the token to query the owner of\n     * @return address currently marked as the owner of the given token ID\n     */\n    function ownerOf(uint256 tokenId) public view returns (address) {\n        address owner = _tokenOwner[tokenId];\n        require(owner != address(0), \"ERC721: owner query for nonexistent token\");\n\n        return owner;\n    }\n\n    /**\n     * @dev Transfers the ownership of a given token ID to another address.\n     * Usage of this method is discouraged, use {safeTransferFrom} whenever possible.\n     * Requires the msg.sender to be the owner.\n     * @param from current owner of the token\n     * @param to address to receive the ownership of the given token ID\n     * @param tokenId uint256 ID of the token to be transferred\n     */\n    function transferFrom(address from, address to, uint256 tokenId) public {\n        //solhint-disable-next-line max-line-length\n        require(ownerOf(tokenId) == msg.sender, \"ERC721: transfer caller is not owner\");\n\n        _transferFrom(from, to, tokenId);\n    }\n\n    /**\n     * @dev Returns whether the specified token exists.\n     * @param tokenId uint256 ID of the token to query the existence of\n     * @return bool whether the token exists\n     */\n    function _exists(uint256 tokenId) internal view returns (bool) {\n        address owner = _tokenOwner[tokenId];\n        return owner != address(0);\n    }\n\n    /**\n     * @dev Internal function to mint a new token.\n     * Reverts if the given token ID already exists.\n     * @param to The address that will own the minted token\n     * @param tokenId uint256 ID of the token to be minted\n     */\n    function _mint(address to, uint256 tokenId) internal {\n        require(to != address(0), \"ERC721: mint to the zero address\");\n        require(!_exists(tokenId), \"ERC721: token already minted\");\n\n        _tokenOwner[tokenId] = to;\n        _ownedTokensCount[to]++;\n\n        emit Transfer(address(0), to, tokenId);\n    }\n\n    /**\n     * @dev Internal function to transfer ownership of a given token ID to another address.\n     * As opposed to {transferFrom}, this imposes no restrictions on msg.sender.\n     * @param from current owner of the token\n     * @param to address to receive the ownership of the given token ID\n     * @param tokenId uint256 ID of the token to be transferred\n     */\n    function _transferFrom(address from, address to, uint256 tokenId) internal {\n        require(ownerOf(tokenId) == from, \"ERC721: transfer of token that is not own\");\n        require(to != address(0), \"ERC721: transfer to the zero address\");\n\n        _ownedTokensCount[from]--;\n        _ownedTokensCount[to]++;\n\n        _tokenOwner[tokenId] = to;\n\n        emit Transfer(from, to, tokenId);\n    }\n}",
  "sourcePath": "/home/bobby/PixT/contracts/PixT.sol",
  "compiler": {
    "name": "solc",
    "version": "0.5.12+commit.7709ece9.Emscripten.clang"
  },
  "schemaVersion": "3.0.19",
  "updatedAt": "2020-01-30T17:24:07.576Z",
  "devdoc": {
    "methods": {
      "balanceOf(address)": {
        "details": "Gets the balance of the specified address.",
        "params": {
          "owner": "address to query the balance of"
        },
        "return": "uint256 representing the amount owned by the passed address"
      },
      "balanceOfSC()": {
        "details": "Gets the balance of the Smart contract. Only available to the current owner return uint256 representing the amount of ETH owned by the contract"
      },
      "buyPics(uint256,uint256,uint8,uint256)": {
        "details": "Buying a picture",
        "params": {
          "_tokenID": "uint256 ID of the token",
          "amount": "uint256 amount paid to buy the picture",
          "format": "uint256 format of the picture the photo buyer wants",
          "shipping": "uint8 shipping options value"
        }
      },
      "createNewPicture(string,bool)": {
        "details": "Create a new picture with all its metadatas. Only available to the current owner",
        "params": {
          "_datas": "string all metadatas of the picture in a single string",
          "_permission": "bool authorize Pix.T to manage its photos commercialization as prints"
        }
      },
      "getListToken(address)": {
        "details": "Get the list of tokens owned by an address ",
        "params": {
          "_address": "address Address we want to have the list of tokens"
        },
        "return": "uint256[] List of owned tokens"
      },
      "getPhotoOwnerInfos(address)": {
        "details": "Get PhotoOwner's informations like the value of all revenues and number of sales",
        "params": {
          "_addr": "address Address from which we want to obtain informations"
        },
        "return": "uint256 sales Number of sales for this addressuint256 revenues All revenues made from saling pictures return uint8 accessLevel Define access / limitation / embargo / between Photo owner / agencys system and Pix.T solution"
      },
      "getPicInfos(uint256)": {
        "details": "get all informations of a tokenID",
        "params": {
          "_tokenID": "uint256 ID of the token"
        },
        "return": "datas string representing all the metadatas of the Picturecopyright bool is the picture under a copyright infrigement ? yes = TRUE, else FALSEprintable bool TRUE = the news reader can clicks the picture for print sale and is redirected to the print eCommerce site and order"
      },
      "getTokenID()": {
        "details": "Get the current tokenID value",
        "return": "uint256 Id of the current tokenID"
      },
      "ownerOf(uint256)": {
        "details": "Gets the owner of the specified token ID.",
        "params": {
          "tokenId": "uint256 ID of the token to query the owner of"
        },
        "return": "address currently marked as the owner of the given token ID"
      },
      "setAccessLevel(uint256,uint8)": {
        "details": "Set the access level of a photo owner",
        "params": {
          "_level": "uint8 Access level of the photo's owner",
          "_tokenID": "uint256 ID of the token"
        }
      },
      "setPermission(uint256,bool)": {
        "details": "Set if PixT is allowed to manage its photos commercialization as prints",
        "params": {
          "_tokenID": "uint256 ID of the token",
          "value": "bool True if PixT is allowed to manage the picture as print, else False"
        }
      },
      "setPrintable(uint256,bool)": {
        "details": "Set if the picture is printable or not",
        "params": {
          "_tokenID": "uint256 ID of the token",
          "value": "bool True if the picture is printable, else False"
        }
      },
      "transferFrom(address,address,uint256)": {
        "details": "Transfers the ownership of a given token ID to another address. Usage of this method is discouraged, use {safeTransferFrom} whenever possible. Requires the msg.sender to be the owner.",
        "params": {
          "from": "current owner of the token",
          "to": "address to receive the ownership of the given token ID",
          "tokenId": "uint256 ID of the token to be transferred"
        }
      }
    }
  },
  "userdoc": {
    "methods": {}
  }
}